{
  "_format": "hh-sol-artifact-1",
  "contractName": "RockPaperScissors",
  "sourceName": "contracts/RockPaperScissors.sol",
  "abi": [
    {
      "inputs": [],
      "stateMutability": "nonpayable",
      "type": "constructor"
    },
    {
      "inputs": [],
      "name": "bothPlayed",
      "outputs": [
        {
          "internalType": "bool",
          "name": "",
          "type": "bool"
        }
      ],
      "stateMutability": "view",
      "type": "function"
    },
    {
      "inputs": [],
      "name": "bothRevealed",
      "outputs": [
        {
          "internalType": "bool",
          "name": "",
          "type": "bool"
        }
      ],
      "stateMutability": "view",
      "type": "function"
    },
    {
      "inputs": [],
      "name": "getContractBalance",
      "outputs": [
        {
          "internalType": "uint256",
          "name": "",
          "type": "uint256"
        }
      ],
      "stateMutability": "view",
      "type": "function"
    },
    {
      "inputs": [],
      "name": "getOutcome",
      "outputs": [],
      "stateMutability": "nonpayable",
      "type": "function"
    },
    {
      "inputs": [
        {
          "internalType": "bytes32",
          "name": "encrMove",
          "type": "bytes32"
        }
      ],
      "name": "play",
      "outputs": [],
      "stateMutability": "nonpayable",
      "type": "function"
    },
    {
      "inputs": [],
      "name": "player1",
      "outputs": [
        {
          "internalType": "address",
          "name": "",
          "type": "address"
        }
      ],
      "stateMutability": "view",
      "type": "function"
    },
    {
      "inputs": [],
      "name": "player1Bet",
      "outputs": [
        {
          "internalType": "uint256",
          "name": "",
          "type": "uint256"
        }
      ],
      "stateMutability": "view",
      "type": "function"
    },
    {
      "inputs": [],
      "name": "player1Hash",
      "outputs": [
        {
          "internalType": "bytes32",
          "name": "",
          "type": "bytes32"
        }
      ],
      "stateMutability": "view",
      "type": "function"
    },
    {
      "inputs": [],
      "name": "player1Move",
      "outputs": [
        {
          "internalType": "string",
          "name": "",
          "type": "string"
        }
      ],
      "stateMutability": "view",
      "type": "function"
    },
    {
      "inputs": [],
      "name": "player2",
      "outputs": [
        {
          "internalType": "address",
          "name": "",
          "type": "address"
        }
      ],
      "stateMutability": "view",
      "type": "function"
    },
    {
      "inputs": [],
      "name": "player2Bet",
      "outputs": [
        {
          "internalType": "uint256",
          "name": "",
          "type": "uint256"
        }
      ],
      "stateMutability": "view",
      "type": "function"
    },
    {
      "inputs": [],
      "name": "player2Hash",
      "outputs": [
        {
          "internalType": "bytes32",
          "name": "",
          "type": "bytes32"
        }
      ],
      "stateMutability": "view",
      "type": "function"
    },
    {
      "inputs": [],
      "name": "player2Move",
      "outputs": [
        {
          "internalType": "string",
          "name": "",
          "type": "string"
        }
      ],
      "stateMutability": "view",
      "type": "function"
    },
    {
      "inputs": [],
      "name": "register",
      "outputs": [],
      "stateMutability": "payable",
      "type": "function"
    },
    {
      "inputs": [
        {
          "internalType": "string",
          "name": "clearMove",
          "type": "string"
        }
      ],
      "name": "reveal",
      "outputs": [],
      "stateMutability": "nonpayable",
      "type": "function"
    },
    {
      "inputs": [],
      "name": "whoAmI",
      "outputs": [
        {
          "internalType": "uint256",
          "name": "",
          "type": "uint256"
        }
      ],
      "stateMutability": "view",
      "type": "function"
    }
  ],
  "bytecode": "0x608060405234801561001057600080fd5b5060008060006101000a81548173ffffffffffffffffffffffffffffffffffffffff021916908373ffffffffffffffffffffffffffffffffffffffff1602179055506000600160006101000a81548173ffffffffffffffffffffffffffffffffffffffff021916908373ffffffffffffffffffffffffffffffffffffffff16021790555061170d806100a36000396000f3fe6080604052600436106100f35760003560e01c8063807c85041161008a578063d30895e411610059578063d30895e4146102c3578063d9f8fd12146102ee578063da91254c14610319578063fb93247f14610344576100f3565b8063807c8504146102195780638690fd7114610244578063a45332a71461026f578063c7a1865b1461029a576100f3565b806359a5f12d116100c657806359a5f12d146101815780636f9fb98a146101ac5780637685ef8e146101d75780637e7e4b4714610202576100f3565b806311289fba146100f85780631aa3a0081461012357806343445ca81461012d5780634c26124714610158575b600080fd5b34801561010457600080fd5b5061010d61036f565b60405161011a9190610d2e565b60405180910390f35b61012b610375565b005b34801561013957600080fd5b50610142610591565b60405161014f9190610d64565b60405180910390f35b34801561016457600080fd5b5061017f600480360381019061017a9190610ed9565b6105c3565b005b34801561018d57600080fd5b506101966107c1565b6040516101a39190610f63565b60405180910390f35b3480156101b857600080fd5b506101c16107e7565b6040516101ce9190610d2e565b60405180910390f35b3480156101e357600080fd5b506101ec6107ef565b6040516101f99190610ffd565b60405180910390f35b34801561020e57600080fd5b5061021761087d565b005b34801561022557600080fd5b5061022e6108de565b60405161023b9190610d64565b60405180910390f35b34801561025057600080fd5b506102596108ff565b6040516102669190610ffd565b60405180910390f35b34801561027b57600080fd5b5061028461098d565b6040516102919190611038565b60405180910390f35b3480156102a657600080fd5b506102c160048036038101906102bc919061107f565b610993565b005b3480156102cf57600080fd5b506102d8610b39565b6040516102e59190610f63565b60405180910390f35b3480156102fa57600080fd5b50610303610b5d565b6040516103109190610d2e565b60405180910390f35b34801561032557600080fd5b5061032e610b63565b60405161033b9190610d2e565b60405180910390f35b34801561035057600080fd5b50610359610c28565b6040516103669190611038565b60405180910390f35b60025481565b600073ffffffffffffffffffffffffffffffffffffffff1660008054906101000a900473ffffffffffffffffffffffffffffffffffffffff1673ffffffffffffffffffffffffffffffffffffffff16148061041e5750600073ffffffffffffffffffffffffffffffffffffffff16600160009054906101000a900473ffffffffffffffffffffffffffffffffffffffff1673ffffffffffffffffffffffffffffffffffffffff16145b61045d576040517f08c379a0000000000000000000000000000000000000000000000000000000008152600401610454906110f8565b60405180910390fd5b655af3107a40003410156104a6576040517f08c379a000000000000000000000000000000000000000000000000000000000815260040161049d90611164565b60405180910390fd5b600073ffffffffffffffffffffffffffffffffffffffff1660008054906101000a900473ffffffffffffffffffffffffffffffffffffffff1673ffffffffffffffffffffffffffffffffffffffff160361054657336000806101000a81548173ffffffffffffffffffffffffffffffffffffffff021916908373ffffffffffffffffffffffffffffffffffffffff1602179055503460028190555061058f565b33600160006101000a81548173ffffffffffffffffffffffffffffffffffffffff021916908373ffffffffffffffffffffffffffffffffffffffff160217905550346003819055505b565b600080600680546105a1906111b3565b90501180156105be57506000600780546105ba906111b3565b9050115b905090565b60008054906101000a900473ffffffffffffffffffffffffffffffffffffffff1673ffffffffffffffffffffffffffffffffffffffff163373ffffffffffffffffffffffffffffffffffffffff16148061066a5750600160009054906101000a900473ffffffffffffffffffffffffffffffffffffffff1673ffffffffffffffffffffffffffffffffffffffff163373ffffffffffffffffffffffffffffffffffffffff16145b6106a9576040517f08c379a00000000000000000000000000000000000000000000000000000000081526004016106a090611256565b60405180910390fd5b600454816040516020016106bd91906112b2565b6040516020818303038152906040528051906020012014806107065750600554816040516020016106ee91906112b2565b60405160208183030381529060405280519060200120145b610745576040517f08c379a000000000000000000000000000000000000000000000000000000000815260040161073c90611315565b60405180910390fd5b60008054906101000a900473ffffffffffffffffffffffffffffffffffffffff1673ffffffffffffffffffffffffffffffffffffffff163373ffffffffffffffffffffffffffffffffffffffff16036107ad5780600690816107a791906114e1565b506107be565b80600790816107bc91906114e1565b505b50565b600160009054906101000a900473ffffffffffffffffffffffffffffffffffffffff1681565b600047905090565b600780546107fc906111b3565b80601f0160208091040260200160405190810160405280929190818152602001828054610828906111b3565b80156108755780601f1061084a57610100808354040283529160200191610875565b820191906000526020600020905b81548152906001019060200180831161085857829003601f168201915b505050505081565b6108856108de565b80156108955750610894610591565b5b6108d4576040517f08c379a00000000000000000000000000000000000000000000000000000000081526004016108cb90611625565b60405180910390fd5b6108dc610c2e565b565b60008060001b600454141580156108fa57506000801b60055414155b905090565b6006805461090c906111b3565b80601f0160208091040260200160405190810160405280929190818152602001828054610938906111b3565b80156109855780601f1061095a57610100808354040283529160200191610985565b820191906000526020600020905b81548152906001019060200180831161096857829003601f168201915b505050505081565b60045481565b60008054906101000a900473ffffffffffffffffffffffffffffffffffffffff1673ffffffffffffffffffffffffffffffffffffffff163373ffffffffffffffffffffffffffffffffffffffff161480610a3a5750600160009054906101000a900473ffffffffffffffffffffffffffffffffffffffff1673ffffffffffffffffffffffffffffffffffffffff163373ffffffffffffffffffffffffffffffffffffffff16145b610a79576040517f08c379a0000000000000000000000000000000000000000000000000000000008152600401610a7090611256565b60405180910390fd5b6000801b6004541480610a9057506000801b600554145b610acf576040517f08c379a0000000000000000000000000000000000000000000000000000000008152600401610ac6906116b7565b60405180910390fd5b60008054906101000a900473ffffffffffffffffffffffffffffffffffffffff1673ffffffffffffffffffffffffffffffffffffffff163373ffffffffffffffffffffffffffffffffffffffff1603610b2e5780600481905550610b36565b806005819055505b50565b60008054906101000a900473ffffffffffffffffffffffffffffffffffffffff1681565b60035481565b60008060009054906101000a900473ffffffffffffffffffffffffffffffffffffffff1673ffffffffffffffffffffffffffffffffffffffff163373ffffffffffffffffffffffffffffffffffffffff1603610bc25760019050610c25565b600160009054906101000a900473ffffffffffffffffffffffffffffffffffffffff1673ffffffffffffffffffffffffffffffffffffffff163373ffffffffffffffffffffffffffffffffffffffff1603610c205760029050610c25565b600090505b90565b60055481565b60008060006101000a81548173ffffffffffffffffffffffffffffffffffffffff021916908373ffffffffffffffffffffffffffffffffffffffff1602179055506000600160006101000a81548173ffffffffffffffffffffffffffffffffffffffff021916908373ffffffffffffffffffffffffffffffffffffffff160217905550600060028190555060006003819055506000801b6004819055506000801b6005819055506040518060200160405280600081525060069081610cf391906114e1565b506040518060200160405280600081525060079081610d1291906114e1565b50565b6000819050919050565b610d2881610d15565b82525050565b6000602082019050610d436000830184610d1f565b92915050565b60008115159050919050565b610d5e81610d49565b82525050565b6000602082019050610d796000830184610d55565b92915050565b6000604051905090565b600080fd5b600080fd5b600080fd5b600080fd5b6000601f19601f8301169050919050565b7f4e487b7100000000000000000000000000000000000000000000000000000000600052604160045260246000fd5b610de682610d9d565b810181811067ffffffffffffffff82111715610e0557610e04610dae565b5b80604052505050565b6000610e18610d7f565b9050610e248282610ddd565b919050565b600067ffffffffffffffff821115610e4457610e43610dae565b5b610e4d82610d9d565b9050602081019050919050565b82818337600083830152505050565b6000610e7c610e7784610e29565b610e0e565b905082815260208101848484011115610e9857610e97610d98565b5b610ea3848285610e5a565b509392505050565b600082601f830112610ec057610ebf610d93565b5b8135610ed0848260208601610e69565b91505092915050565b600060208284031215610eef57610eee610d89565b5b600082013567ffffffffffffffff811115610f0d57610f0c610d8e565b5b610f1984828501610eab565b91505092915050565b600073ffffffffffffffffffffffffffffffffffffffff82169050919050565b6000610f4d82610f22565b9050919050565b610f5d81610f42565b82525050565b6000602082019050610f786000830184610f54565b92915050565b600081519050919050565b600082825260208201905092915050565b60005b83811015610fb8578082015181840152602081019050610f9d565b60008484015250505050565b6000610fcf82610f7e565b610fd98185610f89565b9350610fe9818560208601610f9a565b610ff281610d9d565b840191505092915050565b600060208201905081810360008301526110178184610fc4565b905092915050565b6000819050919050565b6110328161101f565b82525050565b600060208201905061104d6000830184611029565b92915050565b61105c8161101f565b811461106757600080fd5b50565b60008135905061107981611053565b92915050565b60006020828403121561109557611094610d89565b5b60006110a38482850161106a565b91505092915050565b7f426f746820706c617965727320616c7265616479207265676973746572656400600082015250565b60006110e2601f83610f89565b91506110ed826110ac565b602082019050919050565b60006020820190508181036000830152611111816110d5565b9050919050565b7f4d696e696d756d20626574206e6f74206d657400000000000000000000000000600082015250565b600061114e601383610f89565b915061115982611118565b602082019050919050565b6000602082019050818103600083015261117d81611141565b9050919050565b7f4e487b7100000000000000000000000000000000000000000000000000000000600052602260045260246000fd5b600060028204905060018216806111cb57607f821691505b6020821081036111de576111dd611184565b5b50919050565b7f596f7520617265206e6f742072656769737465726564206173206120706c617960008201527f6572000000000000000000000000000000000000000000000000000000000000602082015250565b6000611240602283610f89565b915061124b826111e4565b604082019050919050565b6000602082019050818103600083015261126f81611233565b9050919050565b600081905092915050565b600061128c82610f7e565b6112968185611276565b93506112a6818560208601610f9a565b80840191505092915050565b60006112be8284611281565b915081905092915050565b7f496e76616c6964206d6f7665206f722070617373776f72640000000000000000600082015250565b60006112ff601883610f89565b915061130a826112c9565b602082019050919050565b6000602082019050818103600083015261132e816112f2565b9050919050565b60008190508160005260206000209050919050565b60006020601f8301049050919050565b600082821b905092915050565b6000600883026113977fffffffffffffffffffffffffffffffffffffffffffffffffffffffffffffffff8261135a565b6113a1868361135a565b95508019841693508086168417925050509392505050565b6000819050919050565b60006113de6113d96113d484610d15565b6113b9565b610d15565b9050919050565b6000819050919050565b6113f8836113c3565b61140c611404826113e5565b848454611367565b825550505050565b600090565b611421611414565b61142c8184846113ef565b505050565b5b8181101561145057611445600082611419565b600181019050611432565b5050565b601f8211156114955761146681611335565b61146f8461134a565b8101602085101561147e578190505b61149261148a8561134a565b830182611431565b50505b505050565b600082821c905092915050565b60006114b86000198460080261149a565b1980831691505092915050565b60006114d183836114a7565b9150826002028217905092915050565b6114ea82610f7e565b67ffffffffffffffff81111561150357611502610dae565b5b61150d82546111b3565b611518828285611454565b600060209050601f83116001811461154b5760008415611539578287015190505b61154385826114c5565b8655506115ab565b601f19841661155986611335565b60005b828110156115815784890151825560018201915060208501945060208101905061155c565b8683101561159e578489015161159a601f8916826114a7565b8355505b6001600288020188555050505b505050505050565b7f506c61796572732068617665206e6f7420636f6d706c6574656420746865206760008201527f616d652079657400000000000000000000000000000000000000000000000000602082015250565b600061160f602783610f89565b915061161a826115b3565b604082019050919050565b6000602082019050818103600083015261163e81611602565b9050919050565b7f426f746820706c6179657273206861766520616c7265616479206d616465207460008201527f68656972206d6f76657300000000000000000000000000000000000000000000602082015250565b60006116a1602a83610f89565b91506116ac82611645565b604082019050919050565b600060208201905081810360008301526116d081611694565b905091905056fea26469706673582212201b90d0a43322451fa9bfdea97ed5086b23008b3c51b684903471d989bada780264736f6c63430008130033",
  "linkReferences": {},
  "deployedLinkReferences": {}
}